{
  "contractName": "EnergyGrid",
  "abi": [
    {
      "inputs": [],
      "stateMutability": "nonpayable",
      "type": "constructor"
    },
    {
      "anonymous": false,
      "inputs": [
        {
          "indexed": true,
          "internalType": "address",
          "name": "consumer",
          "type": "address"
        },
        {
          "indexed": true,
          "internalType": "address",
          "name": "producer",
          "type": "address"
        },
        {
          "indexed": false,
          "internalType": "uint256",
          "name": "energyAmount",
          "type": "uint256"
        },
        {
          "indexed": false,
          "internalType": "uint256",
          "name": "tokenAmount",
          "type": "uint256"
        }
      ],
      "name": "EnergyPurchased",
      "type": "event"
    },
    {
      "anonymous": false,
      "inputs": [
        {
          "indexed": false,
          "internalType": "address",
          "name": "consumer",
          "type": "address"
        },
        {
          "indexed": false,
          "internalType": "address",
          "name": "retailer",
          "type": "address"
        },
        {
          "indexed": false,
          "internalType": "uint256",
          "name": "energyAmount",
          "type": "uint256"
        },
        {
          "indexed": false,
          "internalType": "uint256",
          "name": "tokenAmount",
          "type": "uint256"
        }
      ],
      "name": "EnergyPurchasedFromRetailer",
      "type": "event"
    },
    {
      "anonymous": false,
      "inputs": [
        {
          "indexed": true,
          "internalType": "address",
          "name": "producer",
          "type": "address"
        },
        {
          "indexed": false,
          "internalType": "uint256",
          "name": "tokenAmount",
          "type": "uint256"
        },
        {
          "indexed": false,
          "internalType": "uint256",
          "name": "etherAmount",
          "type": "uint256"
        }
      ],
      "name": "EnergyTransferred",
      "type": "event"
    },
    {
      "anonymous": false,
      "inputs": [
        {
          "indexed": false,
          "internalType": "uint256",
          "name": "requestedAmount",
          "type": "uint256"
        },
        {
          "indexed": false,
          "internalType": "uint256",
          "name": "availableBalance",
          "type": "uint256"
        }
      ],
      "name": "InsufficientContractBalance",
      "type": "event"
    },
    {
      "anonymous": false,
      "inputs": [
        {
          "indexed": false,
          "internalType": "address",
          "name": "retailer",
          "type": "address"
        }
      ],
      "name": "RetailerRegistered",
      "type": "event"
    },
    {
      "inputs": [
        {
          "internalType": "address",
          "name": "",
          "type": "address"
        }
      ],
      "name": "accounts",
      "outputs": [
        {
          "internalType": "uint256",
          "name": "balance",
          "type": "uint256"
        },
        {
          "internalType": "uint256",
          "name": "escrow",
          "type": "uint256"
        },
        {
          "internalType": "bool",
          "name": "isProducer",
          "type": "bool"
        },
        {
          "internalType": "bool",
          "name": "isConsumer",
          "type": "bool"
        },
        {
          "internalType": "bool",
          "name": "isRetailer",
          "type": "bool"
        }
      ],
      "stateMutability": "view",
      "type": "function",
      "constant": true
    },
    {
      "inputs": [
        {
          "internalType": "address",
          "name": "",
          "type": "address"
        }
      ],
      "name": "consumerToProducer",
      "outputs": [
        {
          "internalType": "address",
          "name": "",
          "type": "address"
        }
      ],
      "stateMutability": "view",
      "type": "function",
      "constant": true
    },
    {
      "inputs": [],
      "name": "energyRate",
      "outputs": [
        {
          "internalType": "uint256",
          "name": "",
          "type": "uint256"
        }
      ],
      "stateMutability": "view",
      "type": "function",
      "constant": true
    },
    {
      "inputs": [
        {
          "internalType": "address",
          "name": "",
          "type": "address"
        }
      ],
      "name": "etherReceivedFromConsumers",
      "outputs": [
        {
          "internalType": "uint256",
          "name": "",
          "type": "uint256"
        }
      ],
      "stateMutability": "view",
      "type": "function",
      "constant": true
    },
    {
      "inputs": [],
      "name": "owner",
      "outputs": [
        {
          "internalType": "address",
          "name": "",
          "type": "address"
        }
      ],
      "stateMutability": "view",
      "type": "function",
      "constant": true
    },
    {
      "inputs": [],
      "name": "retailenergyrate",
      "outputs": [
        {
          "internalType": "uint256",
          "name": "",
          "type": "uint256"
        }
      ],
      "stateMutability": "view",
      "type": "function",
      "constant": true
    },
    {
      "inputs": [
        {
          "internalType": "address",
          "name": "",
          "type": "address"
        }
      ],
      "name": "retailerToProducer",
      "outputs": [
        {
          "internalType": "address",
          "name": "",
          "type": "address"
        }
      ],
      "stateMutability": "view",
      "type": "function",
      "constant": true
    },
    {
      "inputs": [
        {
          "internalType": "address",
          "name": "",
          "type": "address"
        }
      ],
      "name": "smartMeters",
      "outputs": [
        {
          "internalType": "uint256",
          "name": "consumedEnergy",
          "type": "uint256"
        },
        {
          "internalType": "bool",
          "name": "isPaid",
          "type": "bool"
        }
      ],
      "stateMutability": "view",
      "type": "function",
      "constant": true
    },
    {
      "inputs": [],
      "name": "tokenToEtherRate",
      "outputs": [
        {
          "internalType": "uint256",
          "name": "",
          "type": "uint256"
        }
      ],
      "stateMutability": "view",
      "type": "function",
      "constant": true
    },
    {
      "stateMutability": "payable",
      "type": "receive",
      "payable": true
    },
    {
      "inputs": [],
      "name": "registerAsProducer",
      "outputs": [],
      "stateMutability": "nonpayable",
      "type": "function"
    },
    {
      "inputs": [],
      "name": "registerAsConsumer",
      "outputs": [],
      "stateMutability": "nonpayable",
      "type": "function"
    },
    {
      "inputs": [],
      "name": "registerAsRetailer",
      "outputs": [],
      "stateMutability": "nonpayable",
      "type": "function"
    },
    {
      "inputs": [],
      "name": "buyTokens",
      "outputs": [],
      "stateMutability": "payable",
      "type": "function",
      "payable": true
    },
    {
      "inputs": [
        {
          "internalType": "address",
          "name": "producer",
          "type": "address"
        },
        {
          "internalType": "uint256",
          "name": "energyAmount",
          "type": "uint256"
        }
      ],
      "name": "buyEnergy",
      "outputs": [],
      "stateMutability": "nonpayable",
      "type": "function"
    },
    {
      "inputs": [
        {
          "internalType": "address payable",
          "name": "producer",
          "type": "address"
        }
      ],
      "name": "releaseTokensToProducer",
      "outputs": [],
      "stateMutability": "nonpayable",
      "type": "function"
    },
    {
      "inputs": [
        {
          "internalType": "address payable",
          "name": "retailer",
          "type": "address"
        },
        {
          "internalType": "uint256",
          "name": "energyAmount",
          "type": "uint256"
        }
      ],
      "name": "buyEnergyFromRetailer",
      "outputs": [],
      "stateMutability": "payable",
      "type": "function",
      "payable": true
    },
    {
      "inputs": [
        {
          "internalType": "address payable",
          "name": "producer",
          "type": "address"
        }
      ],
      "name": "retailerPaysProducer",
      "outputs": [],
      "stateMutability": "payable",
      "type": "function",
      "payable": true
    },
    {
      "inputs": [
        {
          "internalType": "address",
          "name": "producer",
          "type": "address"
        },
        {
          "internalType": "uint256",
          "name": "energyAmount",
          "type": "uint256"
        }
      ],
      "name": "buyEnergyFromProducer",
      "outputs": [],
      "stateMutability": "payable",
      "type": "function",
      "payable": true
    },
    {
      "inputs": [],
      "name": "checkConsumedEnergy",
      "outputs": [
        {
          "internalType": "uint256",
          "name": "",
          "type": "uint256"
        }
      ],
      "stateMutability": "view",
      "type": "function",
      "constant": true
    },
    {
      "inputs": [
        {
          "internalType": "address payable",
          "name": "producer",
          "type": "address"
        }
      ],
      "name": "payForConsumedEnergy",
      "outputs": [],
      "stateMutability": "payable",
      "type": "function",
      "payable": true
    }
  ],
  "bytecode": "0x60806040526001600655670de0b6b3a7640000600755670de0b6b3a764000060085534801561002d57600080fd5b5033600560006101000a81548173ffffffffffffffffffffffffffffffffffffffff021916908373ffffffffffffffffffffffffffffffffffffffff160217905550611ee08061007e6000396000f3fe6080604052600436106101235760003560e01c80638da5cb5b116100a0578063d3b722e011610064578063d3b722e014610387578063e08f5638146103c4578063ea9b788c146103db578063f8f2d2e814610406578063fea0acb7146104225761012a565b80638da5cb5b146102f15780639da81d661461031c578063a147011314610345578063bc909df314610361578063d0febe4c1461037d5761012a565b806340520f85116100e757806340520f8514610201578063580653d61461022c5780635e5c06e214610257578063760541161461029857806383fb991c146102d55761012a565b806310f6a3431461012f57806312c78ffa1461016d5780632c27afec1461018457806336fd7e1b1461019b5780633bb9b52c146101c45761012a565b3661012a57005b600080fd5b34801561013b57600080fd5b506101566004803603810190610151919061146e565b61044d565b6040516101649291906114cf565b60405180910390f35b34801561017957600080fd5b5061018261047e565b005b34801561019057600080fd5b506101996104db565b005b3480156101a757600080fd5b506101c260048036038101906101bd9190611524565b610658565b005b3480156101d057600080fd5b506101eb60048036038101906101e6919061146e565b6107a6565b6040516101f89190611573565b60405180910390f35b34801561020d57600080fd5b506102166107d9565b604051610223919061158e565b60405180910390f35b34801561023857600080fd5b506102416107df565b60405161024e919061158e565b60405180910390f35b34801561026357600080fd5b5061027e6004803603810190610279919061146e565b6108b7565b60405161028f9594939291906115a9565b60405180910390f35b3480156102a457600080fd5b506102bf60048036038101906102ba919061146e565b610914565b6040516102cc9190611573565b60405180910390f35b6102ef60048036038101906102ea919061163a565b610947565b005b3480156102fd57600080fd5b50610306610b03565b6040516103139190611573565b60405180910390f35b34801561032857600080fd5b50610343600480360381019061033e919061167a565b610b29565b005b61035f600480360381019061035a9190611524565b610cfd565b005b61037b6004803603810190610376919061167a565b610eb0565b005b6103856111bc565b005b34801561039357600080fd5b506103ae60048036038101906103a9919061146e565b611217565b6040516103bb919061158e565b60405180910390f35b3480156103d057600080fd5b506103d961122f565b005b3480156103e757600080fd5b506103f061128c565b6040516103fd919061158e565b60405180910390f35b610420600480360381019061041b919061167a565b611292565b005b34801561042e57600080fd5b50610437611405565b604051610444919061158e565b60405180910390f35b60006020528060005260406000206000915090508060000154908060010160009054906101000a900460ff16905082565b6001600260003373ffffffffffffffffffffffffffffffffffffffff1673ffffffffffffffffffffffffffffffffffffffff16815260200190815260200160002060020160006101000a81548160ff021916908315150217905550565b600260003373ffffffffffffffffffffffffffffffffffffffff1673ffffffffffffffffffffffffffffffffffffffff16815260200190815260200160002060020160009054906101000a900460ff161580156105855750600260003373ffffffffffffffffffffffffffffffffffffffff1673ffffffffffffffffffffffffffffffffffffffff16815260200190815260200160002060020160019054906101000a900460ff16155b6105c4576040517f08c379a00000000000000000000000000000000000000000000000000000000081526004016105bb9061172a565b60405180910390fd5b6001600260003373ffffffffffffffffffffffffffffffffffffffff1673ffffffffffffffffffffffffffffffffffffffff16815260200190815260200160002060020160026101000a81548160ff0219169083151502179055507f38fdd8eb5b0a95606a3c195a848b5d3fb08512d7b4160f0abfb19aa832bbed5f3360405161064e9190611573565b60405180910390a1565b6000600654826106689190611779565b905080600260003373ffffffffffffffffffffffffffffffffffffffff1673ffffffffffffffffffffffffffffffffffffffff1681526020019081526020016000206000015410156106ef576040517f08c379a00000000000000000000000000000000000000000000000000000000081526004016106e69061181f565b60405180910390fd5b80600260003373ffffffffffffffffffffffffffffffffffffffff1673ffffffffffffffffffffffffffffffffffffffff1681526020019081526020016000206000016000828254610741919061183f565b9250508190555080600260003373ffffffffffffffffffffffffffffffffffffffff1673ffffffffffffffffffffffffffffffffffffffff168152602001908152602001600020600101600082825461079a9190611873565b92505081905550505050565b60016020528060005260406000206000915054906101000a900473ffffffffffffffffffffffffffffffffffffffff1681565b60085481565b6000600260003373ffffffffffffffffffffffffffffffffffffffff1673ffffffffffffffffffffffffffffffffffffffff16815260200190815260200160002060020160019054906101000a900460ff16610870576040517f08c379a00000000000000000000000000000000000000000000000000000000081526004016108679061193b565b60405180910390fd5b6000803373ffffffffffffffffffffffffffffffffffffffff1673ffffffffffffffffffffffffffffffffffffffff16815260200190815260200160002060000154905090565b60026020528060005260406000206000915090508060000154908060010154908060020160009054906101000a900460ff16908060020160019054906101000a900460ff16908060020160029054906101000a900460ff16905085565b60036020528060005260406000206000915054906101000a900473ffffffffffffffffffffffffffffffffffffffff1681565b600260008373ffffffffffffffffffffffffffffffffffffffff1673ffffffffffffffffffffffffffffffffffffffff16815260200190815260200160002060020160029054906101000a900460ff166109d6576040517f08c379a00000000000000000000000000000000000000000000000000000000081526004016109cd906119cd565b60405180910390fd5b600754816109e49190611779565b3414610a25576040517f08c379a0000000000000000000000000000000000000000000000000000000008152600401610a1c90611a39565b60405180910390fd5b8173ffffffffffffffffffffffffffffffffffffffff166108fc349081150290604051600060405180830381858888f19350505050158015610a6b573d6000803e3d6000fd5b5034600460008473ffffffffffffffffffffffffffffffffffffffff1673ffffffffffffffffffffffffffffffffffffffff1681526020019081526020016000206000828254610abb9190611873565b925050819055507fa6bf5393d51f87d21f31efc121c50b5010edf6999e114e05623f807983ab2aa633838334604051610af79493929190611ab8565b60405180910390a15050565b600560009054906101000a900473ffffffffffffffffffffffffffffffffffffffff1681565b6000600260003373ffffffffffffffffffffffffffffffffffffffff1673ffffffffffffffffffffffffffffffffffffffff16815260200190815260200160002060010154905060008111610bb3576040517f08c379a0000000000000000000000000000000000000000000000000000000008152600401610baa90611b49565b60405180910390fd5b600060085482610bc39190611779565b905080471015610c08576040517f08c379a0000000000000000000000000000000000000000000000000000000008152600401610bff90611bb5565b60405180910390fd5b8273ffffffffffffffffffffffffffffffffffffffff166108fc829081150290604051600060405180830381858888f19350505050158015610c4e573d6000803e3d6000fd5b5081600260003373ffffffffffffffffffffffffffffffffffffffff1673ffffffffffffffffffffffffffffffffffffffff1681526020019081526020016000206001016000828254610ca1919061183f565b925050819055508273ffffffffffffffffffffffffffffffffffffffff167f704ef265c2f2ab6759468a12c34cb227d7b6431813a9e4921887b9e59d2a766d8383604051610cf0929190611bd5565b60405180910390a2505050565b60075481610d0b9190611779565b3414610d4c576040517f08c379a0000000000000000000000000000000000000000000000000000000008152600401610d4390611a39565b60405180910390fd5b8173ffffffffffffffffffffffffffffffffffffffff166108fc349081150290604051600060405180830381858888f19350505050158015610d92573d6000803e3d6000fd5b50806000803373ffffffffffffffffffffffffffffffffffffffff1673ffffffffffffffffffffffffffffffffffffffff1681526020019081526020016000206000016000828254610de49190611873565b9250508190555060008060003373ffffffffffffffffffffffffffffffffffffffff1673ffffffffffffffffffffffffffffffffffffffff16815260200190815260200160002060010160006101000a81548160ff0219169083151502179055508173ffffffffffffffffffffffffffffffffffffffff163373ffffffffffffffffffffffffffffffffffffffff167f1cbe81348d01d294ac68391c5ba74e03143dc0a19a85ee2dfb5adeca547fc5e28334604051610ea4929190611bd5565b60405180910390a35050565b60008060003373ffffffffffffffffffffffffffffffffffffffff1673ffffffffffffffffffffffffffffffffffffffff16815260200190815260200160002090508060010160009054906101000a900460ff1615610f44576040517f08c379a0000000000000000000000000000000000000000000000000000000008152600401610f3b90611c4a565b60405180910390fd5b600260008373ffffffffffffffffffffffffffffffffffffffff1673ffffffffffffffffffffffffffffffffffffffff16815260200190815260200160002060020160009054906101000a900460ff16610fd3576040517f08c379a0000000000000000000000000000000000000000000000000000000008152600401610fca90611cdc565b60405180910390fd5b60006007548260000154610fe79190611779565b905080341461102b576040517f08c379a000000000000000000000000000000000000000000000000000000000815260040161102290611a39565b60405180910390fd5b8273ffffffffffffffffffffffffffffffffffffffff16600160003373ffffffffffffffffffffffffffffffffffffffff1673ffffffffffffffffffffffffffffffffffffffff16815260200190815260200160002060009054906101000a900473ffffffffffffffffffffffffffffffffffffffff1673ffffffffffffffffffffffffffffffffffffffff16146110f8576040517f08c379a00000000000000000000000000000000000000000000000000000000081526004016110ef90611d94565b60405180910390fd5b8273ffffffffffffffffffffffffffffffffffffffff166108fc349081150290604051600060405180830381858888f1935050505015801561113e573d6000803e3d6000fd5b506000826000018190555060018260010160006101000a81548160ff0219169083151502179055508273ffffffffffffffffffffffffffffffffffffffff167f704ef265c2f2ab6759468a12c34cb227d7b6431813a9e4921887b9e59d2a766d6000346040516111af929190611def565b60405180910390a2505050565b34600260003373ffffffffffffffffffffffffffffffffffffffff1673ffffffffffffffffffffffffffffffffffffffff168152602001908152602001600020600001600082825461120e9190611873565b92505081905550565b60046020528060005260406000206000915090505481565b6001600260003373ffffffffffffffffffffffffffffffffffffffff1673ffffffffffffffffffffffffffffffffffffffff16815260200190815260200160002060020160016101000a81548160ff021916908315150217905550565b60065481565b34600460003373ffffffffffffffffffffffffffffffffffffffff1673ffffffffffffffffffffffffffffffffffffffff168152602001908152602001600020541015611314576040517f08c379a000000000000000000000000000000000000000000000000000000000815260040161130b90611e8a565b60405180910390fd5b8073ffffffffffffffffffffffffffffffffffffffff166108fc349081150290604051600060405180830381858888f1935050505015801561135a573d6000803e3d6000fd5b5034600460003373ffffffffffffffffffffffffffffffffffffffff1673ffffffffffffffffffffffffffffffffffffffff16815260200190815260200160002060008282546113aa919061183f565b925050819055508073ffffffffffffffffffffffffffffffffffffffff167f704ef265c2f2ab6759468a12c34cb227d7b6431813a9e4921887b9e59d2a766d6000346040516113fa929190611def565b60405180910390a250565b60075481565b600080fd5b600073ffffffffffffffffffffffffffffffffffffffff82169050919050565b600061143b82611410565b9050919050565b61144b81611430565b811461145657600080fd5b50565b60008135905061146881611442565b92915050565b6000602082840312156114845761148361140b565b5b600061149284828501611459565b91505092915050565b6000819050919050565b6114ae8161149b565b82525050565b60008115159050919050565b6114c9816114b4565b82525050565b60006040820190506114e460008301856114a5565b6114f160208301846114c0565b9392505050565b6115018161149b565b811461150c57600080fd5b50565b60008135905061151e816114f8565b92915050565b6000806040838503121561153b5761153a61140b565b5b600061154985828601611459565b925050602061155a8582860161150f565b9150509250929050565b61156d81611430565b82525050565b60006020820190506115886000830184611564565b92915050565b60006020820190506115a360008301846114a5565b92915050565b600060a0820190506115be60008301886114a5565b6115cb60208301876114a5565b6115d860408301866114c0565b6115e560608301856114c0565b6115f260808301846114c0565b9695505050505050565b600061160782611410565b9050919050565b611617816115fc565b811461162257600080fd5b50565b6000813590506116348161160e565b92915050565b600080604083850312156116515761165061140b565b5b600061165f85828601611625565b92505060206116708582860161150f565b9150509250929050565b6000602082840312156116905761168f61140b565b5b600061169e84828501611625565b91505092915050565b600082825260208201905092915050565b7f4163636f756e742063616e6e6f7420626520612050726f6475636572206f722060008201527f6120436f6e73756d657200000000000000000000000000000000000000000000602082015250565b6000611714602a836116a7565b915061171f826116b8565b604082019050919050565b6000602082019050818103600083015261174381611707565b9050919050565b7f4e487b7100000000000000000000000000000000000000000000000000000000600052601160045260246000fd5b60006117848261149b565b915061178f8361149b565b9250817fffffffffffffffffffffffffffffffffffffffffffffffffffffffffffffffff04831182151516156117c8576117c761174a565b5b828202905092915050565b7f496e73756666696369656e7420746f6b656e2062616c616e6365000000000000600082015250565b6000611809601a836116a7565b9150611814826117d3565b602082019050919050565b60006020820190508181036000830152611838816117fc565b9050919050565b600061184a8261149b565b91506118558361149b565b9250828210156118685761186761174a565b5b828203905092915050565b600061187e8261149b565b91506118898361149b565b9250827fffffffffffffffffffffffffffffffffffffffffffffffffffffffffffffffff038211156118be576118bd61174a565b5b828201905092915050565b7f4f6e6c7920636f6e73756d6572732063616e20636865636b20636f6e73756d6560008201527f6420656e65726779000000000000000000000000000000000000000000000000602082015250565b60006119256028836116a7565b9150611930826118c9565b604082019050919050565b6000602082019050818103600083015261195481611918565b9050919050565b7f5370656369666965642061646472657373206973206e6f74206120526574616960008201527f6c65720000000000000000000000000000000000000000000000000000000000602082015250565b60006119b76023836116a7565b91506119c28261195b565b604082019050919050565b600060208201905081810360008301526119e6816119aa565b9050919050565b7f496e636f727265637420457468657220616d6f756e742073656e740000000000600082015250565b6000611a23601b836116a7565b9150611a2e826119ed565b602082019050919050565b60006020820190508181036000830152611a5281611a16565b9050919050565b6000819050919050565b6000611a7e611a79611a7484611410565b611a59565b611410565b9050919050565b6000611a9082611a63565b9050919050565b6000611aa282611a85565b9050919050565b611ab281611a97565b82525050565b6000608082019050611acd6000830187611564565b611ada6020830186611aa9565b611ae760408301856114a5565b611af460608301846114a5565b95945050505050565b7f4e6f20746f6b656e7320696e20657363726f7720746f2072656c656173650000600082015250565b6000611b33601e836116a7565b9150611b3e82611afd565b602082019050919050565b60006020820190508181036000830152611b6281611b26565b9050919050565b7f496e73756666696369656e7420636f6e74726163742062616c616e6365000000600082015250565b6000611b9f601d836116a7565b9150611baa82611b69565b602082019050919050565b60006020820190508181036000830152611bce81611b92565b9050919050565b6000604082019050611bea60008301856114a5565b611bf760208301846114a5565b9392505050565b7f456e6572677920616c7265616479207061696420666f72000000000000000000600082015250565b6000611c346017836116a7565b9150611c3f82611bfe565b602082019050919050565b60006020820190508181036000830152611c6381611c27565b9050919050565b7f41646472657373206973206e6f74206120726567697374657265642070726f6460008201527f7563657200000000000000000000000000000000000000000000000000000000602082015250565b6000611cc66024836116a7565b9150611cd182611c6a565b604082019050919050565b60006020820190508181036000830152611cf581611cb9565b9050919050565b7f5061796d656e74206d75737420676f20746f207468652070726f64756365722060008201527f66726f6d2077686f6d2074686520656e6572677920776173207075726368617360208201527f6564000000000000000000000000000000000000000000000000000000000000604082015250565b6000611d7e6042836116a7565b9150611d8982611cfc565b606082019050919050565b60006020820190508181036000830152611dad81611d71565b9050919050565b6000819050919050565b6000611dd9611dd4611dcf84611db4565b611a59565b61149b565b9050919050565b611de981611dbe565b82525050565b6000604082019050611e046000830185611de0565b611e1160208301846114a5565b9392505050565b7f496e73756666696369656e7420457468657220746f207061792070726f64756360008201527f6572000000000000000000000000000000000000000000000000000000000000602082015250565b6000611e746022836116a7565b9150611e7f82611e18565b604082019050919050565b60006020820190508181036000830152611ea381611e67565b905091905056fea2646970667358221220dd92d85cc7d05e50a1cde1ea0a0cf1d7c76f1efbb69a6531c502777e04d1d83064736f6c634300080d0033",
  "immutableReferences": {},
  "source": "// SPDX-License-Identifier: MIT\r\npragma solidity ^0.8.0;\r\n\r\ncontract EnergyGrid {\r\n    struct Account {\r\n        uint balance;  // Token balance held by the user directly\r\n        uint escrow;   // Token balance held in escrow within the contract\r\n        bool isProducer;\r\n        bool isConsumer;\r\n        bool isRetailer;\r\n    }\r\n    struct SmartMeter {\r\n    uint consumedEnergy; // Total energy consumed\r\n    bool isPaid; // Has the consumed energy been paid for?\r\n    }\r\n\r\n    mapping(address => SmartMeter) public smartMeters;\r\n    mapping(address => address) public consumerToProducer;\r\n    mapping(address => Account) public accounts;\r\n    mapping(address => address) public retailerToProducer;\r\n    mapping(address => uint) public etherReceivedFromConsumers;\r\n    address public owner; \r\n    uint public energyRate = 1; // Tokens per unit of energy\r\n    uint public retailenergyrate= 1e18;\r\n    uint public tokenToEtherRate = 1 ether; // 1 token = 1000 Wei\r\n\r\n    event EnergyPurchased(address indexed consumer, address indexed producer, uint energyAmount, uint tokenAmount);\r\n    event EnergyTransferred(address indexed producer, uint tokenAmount, uint etherAmount);\r\n    event InsufficientContractBalance(uint requestedAmount, uint availableBalance);\r\n    event RetailerRegistered(address retailer);\r\n    event EnergyPurchasedFromRetailer(address consumer, address retailer, uint energyAmount, uint tokenAmount);\r\n\r\n    constructor() {\r\n        owner = msg.sender;\r\n    }\r\n\r\n    function registerAsProducer() public {\r\n        accounts[msg.sender].isProducer = true;\r\n    }\r\n\r\n    function registerAsConsumer() public {\r\n        accounts[msg.sender].isConsumer = true;\r\n    }\r\n\r\n    function registerAsRetailer() public {\r\n      require(!accounts[msg.sender].isProducer && !accounts[msg.sender].isConsumer, \"Account cannot be a Producer or a Consumer\");\r\n      accounts[msg.sender].isRetailer = true;\r\n      emit RetailerRegistered(msg.sender);\r\n    }\r\n\r\n    function buyTokens() public payable {\r\n        accounts[msg.sender].balance += msg.value;\r\n    }\r\n\r\n    function buyEnergy(address producer, uint energyAmount) public {\r\n        uint tokenAmount = energyAmount * energyRate;\r\n        require(accounts[msg.sender].balance >= tokenAmount, \"Insufficient token balance\");\r\n\r\n        accounts[msg.sender].balance -= tokenAmount;\r\n        accounts[msg.sender].escrow += tokenAmount;\r\n    }\r\n\r\n  function releaseTokensToProducer(address payable producer) public {\r\n    uint tokenAmount = accounts[msg.sender].escrow;\r\n    require(tokenAmount > 0, \"No tokens in escrow to release\");\r\n\r\n    // Calculate the Ether equivalent based on the token rate\r\n    uint etherAmount = tokenAmount * tokenToEtherRate;\r\n\r\n    require(address(this).balance >= etherAmount, \"Insufficient contract balance\");\r\n\r\n    // Transfer Ether to the producer\r\n    producer.transfer(etherAmount);\r\n\r\n    // Update the escrow and balances\r\n    accounts[msg.sender].escrow -= tokenAmount;\r\n\r\n    emit EnergyTransferred(producer, tokenAmount, etherAmount);\r\n}\r\nfunction buyEnergyFromRetailer(address payable retailer, uint energyAmount) public payable {\r\n    require(accounts[retailer].isRetailer, \"Specified address is not a Retailer\");\r\n    require(msg.value == energyAmount * retailenergyrate, \"Incorrect Ether amount sent\");\r\n\r\n    // Transfer Ether from Consumer to Retailer\r\n    retailer.transfer(msg.value);\r\n    etherReceivedFromConsumers[retailer] += msg.value;\r\n\r\n    emit EnergyPurchasedFromRetailer(msg.sender, retailer, energyAmount, msg.value);\r\n}\r\n\r\nfunction retailerPaysProducer(address payable producer) public payable {\r\n    // Ensure the retailer has received enough Ether from consumers to cover this payment\r\n    require(etherReceivedFromConsumers[msg.sender] >= msg.value, \"Insufficient Ether to pay producer\");\r\n\r\n    // Transfer Ether to the producer\r\n    producer.transfer(msg.value);\r\n\r\n    // Decrease the tracked Ether for the retailer\r\n    etherReceivedFromConsumers[msg.sender] -= msg.value;\r\n\r\n    // Emit an event for the Ether transfer\r\n    emit EnergyTransferred(producer, 0, msg.value); // The second argument is 0 since we're not using tokens here\r\n}\r\nfunction buyEnergyFromProducer(address producer, uint energyAmount) public payable {\r\n    // Ensure the consumer has enough Ether to pay\r\n    require(msg.value == energyAmount * retailenergyrate, \"Incorrect Ether amount sent\");\r\n\r\n    // Transfer Ether to the producer\r\n    payable(producer).transfer(msg.value);\r\n\r\n    // Record the energy purchase in the consumer's smart meter\r\n    smartMeters[msg.sender].consumedEnergy += energyAmount;\r\n    smartMeters[msg.sender].isPaid = false;\r\n\r\n    emit EnergyPurchased(msg.sender, producer, energyAmount, msg.value);\r\n}\r\n\r\n// Function for a consumer to check their consumed energy\r\nfunction checkConsumedEnergy() public view returns (uint) {\r\n    require(accounts[msg.sender].isConsumer, \"Only consumers can check consumed energy\");\r\n    return smartMeters[msg.sender].consumedEnergy;\r\n}\r\n\r\nfunction payForConsumedEnergy(address payable producer) public payable {\r\n    SmartMeter storage meter = smartMeters[msg.sender];\r\n    require(!meter.isPaid, \"Energy already paid for\");\r\n    require(accounts[producer].isProducer, \"Address is not a registered producer\");\r\n    \r\n    // Calculate the cost of consumed energy\r\n    uint cost = meter.consumedEnergy * retailenergyrate;\r\n    require(msg.value == cost, \"Incorrect Ether amount sent\");\r\n    \r\n    // Ensure the payment is going to the producer from whom the energy was purchased\r\n    require(consumerToProducer[msg.sender] == producer, \"Payment must go to the producer from whom the energy was purchased\");\r\n    \r\n    // Transfer Ether to the specified producer\r\n    producer.transfer(msg.value);\r\n    \r\n    // Reset the consumer's smart meter\r\n    meter.consumedEnergy = 0;\r\n    meter.isPaid = true;\r\n    \r\n    // Emit an event for the Ether transfer\r\n    emit EnergyTransferred(producer, 0, msg.value);\r\n}\r\n\r\n    // Fallback function to accept Ether\r\n    receive() external payable {}\r\n}\r\n",
  "sourcePath": "D:\\A_sem6\\Blockchain\\blockchain_final\\blockchain\\contracts\\EnergyGrid.sol",
  "compiler": {
    "name": "solc",
    "version": "0.8.13+commit.abaa5c0e.Emscripten.clang"
  },
  "schemaVersion": "3.4.16",
  "updatedAt": "2024-07-03T09:16:15.629Z",
  "networkType": "ethereum",
  "devdoc": {
    "kind": "dev",
    "methods": {},
    "version": 1
  },
  "userdoc": {
    "kind": "user",
    "methods": {},
    "version": 1
  }
}